:100000000C9434000C9451000C9451000C94510049
:100010000C9451000C9451000C9451000C9451001C
:100020000C9451000C9451000C9451000C9451000C
:100030000C9451000C9451000C9451000C945100FC
:100040000C9413010C9451000C9451000C94510029
:100050000C9472010C9451000C9451000C945100BA
:100060000C9451000C94510011241FBECFEFD8E026
:10007000DEBFCDBF12E0A0E0B1E0EAEFF4E102C0E4
:1000800005900D92A833B107D9F727E0A8E3B2E0B5
:1000900001C01D92AA3AB207E1F70E94B7020C9480
:1000A0007B0A0C9400000091B00603950093B00603
:1000B000E091C506F091C606C191CDBFD191DEBFDA
:1000C0000F910FBFFF91EF91DF91CF91BF91AF9152
:1000D0009F918F917F916F915F914F913F912F9160
:1000E0001F910F91FF90EF90DF90CF90BF90AF9056
:1000F0009F908F907F906F905F904F903F902F9048
:100100001F900F9008950F921F922F923F924F923F
:100110005F926F927F928F929F92AF92BF92CF9297
:10012000DF92EF92FF920F931F932F933F934F9382
:100130005F936F937F938F939F93AF93BF93CF936F
:10014000DF93EF93FF930FB70F93E091D306F091F6
:10015000D406CDB7C193DEB7D1930091B506009315
:10016000B606E091C506F091C606E093D306F0937B
:10017000D406C191CDBFD191DEBF0F910FBFFF91CA
:10018000EF91DF91CF91BF91AF919F918F917F912F
:100190006F915F914F913F912F911F910F91FF9020
:1001A000EF90DF90CF90BF90AF909F908F907F9017
:1001B0006F905F904F903F902F901F900F900895F9
:1001C0000091B5060093B606E091C506F091C6060B
:1001D000E093D306F093D406C191CDBFD191DEBF99
:1001E0000F910FBFFF91EF91DF91CF91BF91AF9131
:1001F0009F918F917F916F915F914F913F912F913F
:100200001F910F91FF90EF90DF90CF90BF90AF9034
:100210009F908F907F906F905F904F903F902F9026
:100220001F900F9008950F921F922F923F924F921E
:100230005F926F927F928F929F92AF92BF92CF9276
:10024000DF92EF92FF920F931F932F933F934F9361
:100250005F936F937F938F939F93AF93BF93CF934E
:10026000DF93EF93FF930FB700680F930091D206CF
:1002700003950093D206013041F4CDB7DEB7E0918B
:10028000D306F091D406C193D19309ED06BD7894BD
:100290000E94090500000E94F3030F910FBFFF9118
:1002A000EF91DF91CF91BF91AF919F918F917F910E
:1002B0006F915F914F913F912F911F910F91FF90FF
:1002C000EF90DF90CF90BF90AF909F908F907F90F6
:1002D0006F905F904F903F902F901F900F900895D8
:1002E000A89508950F921F922F923F924F925F927E
:1002F0006F927F928F929F92AF92BF92CF92DF9236
:10030000EF92FF920F931F932F933F934F935F931F
:100310006F937F938F939F93AF93BF93CF93DF930D
:10032000EF93FF930FB700680F930091D2060395E8
:100330000093D2060E94E1020E94F3030F910FBFC7
:10034000FF91EF91DF91CF91BF91AF919F918F91ED
:100350007F916F915F914F913F912F911F910F91DD
:10036000FF90EF90DF90CF90BF90AF909F908F90D5
:100370007F906F905F904F903F902F901F900F90C5
:1003800008950E94C2062EE144E555E060E070E069
:1003900089ED91E00E94B1051092B9061092BA065B
:1003A0001092BB061092BC0688EC90E00E94A30657
:1003B000F3CF80E091E09093A5078093A4078EE0AF
:1003C00091E09093A7078093A6070E946B038FEF9D
:1003D00084B9C4EAD7E00F2EFCE14F2EF1E05F2E86
:1003E000F02D0F2EF1E8AF2EF3E0BF2EF02D0F2EE3
:1003F000F1E72F2EF3E03F2EF02D888199810E94A6
:100400007A078A3AD1F7888199810E947A078A3AD5
:10041000A1F7888199810E947A076C018AEAC8163F
:10042000D1045CF71C141D04DCF40F2EF1E88F2EB0
:10043000F3E09F2EF02D8601000F111F0F571C4F68
:10044000712C888199810E947A079C013327F401DD
:10045000219331934F01780EE017F10791F701C016
:10046000712C888199810E947A07972D9095981315
:10047000C4CF88EC90E09093DA058093D905109270
:100480006E0610926D0610925605109255051C14BA
:100490001D040CF0B2CF00E010E0F801EE0FFF1FDA
:1004A000EF57FC4F808191818530910551F134F4F3
:1004B0008230910551F00497B1F052C08038910517
:1004C000C1F183389105C1F14BC00F5F1F4FF80197
:1004D000EE0FFF1FEF57FC4F808191819093DA055B
:1004E0008093D9053DC00F5F1F4FF801EE0FFF1F2E
:1004F000EF57FC4F8081918190936E0680936D063B
:100500002FC00F5F1F4FF801EE0FFF1FEF57FC4F7B
:100510008081918180935505909356059F938F9389
:100520005F924F920E94B8070F900F900F900F901C
:1005300017C00D5F1F4F14C0F801EE0FFF1FE757E4
:10054000FC4FD101F080E12C828193818E299F297B
:100550008D939D933696AA15BB05A1F7065E1F4F96
:100560000F5F1F4F0C151D050CF497CF46CF0E944F
:10057000E8020E941B0680E090E00E944F059093E5
:100580006E0380936D0380E090E00E944F0590938E
:10059000D4048093D30481E090E00E946C05909392
:1005A0005805809357058FEF84B925E04EEA56E051
:1005B00060E070E081EC91E00E94B1050E947E0451
:1005C000FFCF80915705909158050E9489050895A5
:1005D000F8940E94700184B7877F84BFE0E6F0E062
:1005E00080818861808310822D982C98259A249A86
:1005F00083E084BD8DE085BD86E287BDEEE6F0E058
:10060000808181608083E4E6F0E080818F7D80835B
:10061000E1ECF0E088E1808386E08093C200A0EC0A
:10062000B0E08C918D7F8C9380E18093C400109218
:10063000C50080818064808378940895FA01808366
:1006400031979083319710823197108231971082C1
:100650003197108231971082319710823197108232
:100660003197108231971082319710823197108222
:100670003197108231971082319710823197108212
:100680003197108231971082319710823197108202
:1006900031971082319710823197108231971082F2
:1006A0003197108231976083319770833197108230
:1006B00031971082319710823197108231971082D2
:1006C00031971082319780E88083CA01839708951B
:1006D0000895089508951092C50082E28093C400A1
:1006E000E0ECF0E080818260808386E08093C2004D
:1006F00088E18093C1000895CF93C82F8A3019F400
:100700008DE00E947C03E0ECF0E0908195FFFDCF4E
:10071000C093C600CF910895E0ECF0E0808188237B
:10072000ECF78091C6000895F8947894FDCF0F936C
:100730001F93CF93DF93FC010585E02FF0E0E15D8F
:10074000FE4F1081212F30E0D901A15DBD4FDC911A
:10075000FC01E20FF31F5281A52FB0E0A15DBE4F57
:10076000CC91AC2FB0E0A15DBD4FAC91110F110F3A
:10077000110FC10FBA2FB0955B235283511105C0E1
:100780005D2F50950523FC010587EC2FF0E0EE0F5F
:10079000FF1FE05EF84F0190F081E02D1386128676
:1007A0001782168271876087409584854823448725
:1007B00041110BC08091C706D82BD093C706F90111
:1007C000E853F94F8081A82BA083DF91CF911F912F
:1007D0000F910895FC011586329680E011928F5F8B
:1007E0008830E1F70895F8948091D2068150809383
:1007F000D2069091AF06892BE1F5E091C706F0E0B3
:10080000E15DFE4F808180936C03E82FF0E0E853B8
:10081000F94FE081F0E0E15DFE4F880F880F880F0F
:100820009081890F8093B5069091B606891709F1DA
:10083000E82FF0E0EE0FFF1FE05EF84F808191811E
:100840009093C6068093C5068091B9069091BA062A
:10085000A091BB06B091BC060196A11DB11D80936D
:10086000B9069093BA06A093BB06B093BC060E944B
:10087000E00078940895F8949091D2068091AF06A4
:10088000892BD1F5E091C706F0E0E15DFE4F808154
:10089000E82FF0E0E853F94FE081F0E0E15DFE4F32
:1008A000880F880F880F9081E82FE90FE093B50635
:1008B0008091B606E81701F1F0E0EE0FFF1FE05E51
:1008C000F84F808191819093C6068093C5068091F0
:1008D000B9069091BA06A091BB06B091BC060196EC
:1008E000A11DB11D8093B9069093BA06A093BB06D3
:1008F000B093BC060E948300789408958091B0065E
:10090000811126C0E091C706F0E0E15DFE4FE08175
:10091000AE2FB0E0A853B94FAC91B0E0A15DBE4F8F
:10092000EE0FEE0FEE0F8C91E80FE093B506E0931B
:10093000B606F0E0EE0FFF1FE05EF84F8081918178
:100940009093C6068093C5069093D4068093D306F1
:100950000E9453000895CF93DF93F894E091C1066D
:10096000F091C206309709F44FC022813381309351
:10097000C2062093C10678947183608385871486AC
:1009800013861286C82FC695C695C695C787D0E030
:10099000C15DDD4F9881918BC82FC770C687D0E0AD
:1009A000C15DDD4F9881908B17821682118610866B
:1009B000F894A82FB0E0AA0FBB1FA05EB84FED932C
:1009C000FC93A091B706B091B806B383A2831582B9
:1009D0001482109721F01596FC93EE931497F093E0
:1009E000B806E093B7069091C7068189892B80935A
:1009F000C706A785B0E0A853B94F9C918089892B81
:100A00008C93789480E002C0789486E4DF91CF9153
:100A100008950E946A03E091B706F091B8068585B3
:100A20008F3339F14091C70621E030E0F894828598
:100A300093850097A9F0019793878287892B81F48A
:100A4000848583FD0BC08189A785B0E0A853B94F89
:100A50005C919089952B9C93482B02C03387228709
:100A60000280F381E02D789485858F33F9F64093E9
:100A7000C706F8948091D5069091D606A091D70626
:100A8000B091D8060196A11DB11D8093D506909313
:100A9000D606A093D706B093D80678940895CF933E
:100AA000DF93F894C091D006D091D106209731F011
:100AB000288139813093D1062093D00678942097ED
:100AC00039F021E02C8799838883CE010E94EA03C4
:100AD000CE01DF91CF910895CF93DF93F894C09129
:100AE000D006D091D106209731F0288139813093FA
:100AF000D1062093D0067894209739F023E02C87F4
:100B00009B878A87CE010E94EA03CE01DF91CF91B5
:100B10000895F894FC012485233019F0789481E03D
:100B20000895FC012585222351F041E060E070E04A
:100B30000E94970378940E943B0480E00895FC0192
:100B4000228533852F3FFFEF3F0741F02F5F3F4F57
:100B5000FC0133872287789480E00895789482E3BB
:100B60000895BF92CF92DF92EF92FF920F931F935F
:100B7000CF93DF93B22E2FE32B1508F44FC0F894D8
:100B8000CB2DD0E0FE01EE0FFF1FE05EF84F01908D
:100B9000F081E02DEF2B09F03EC0FE01EE0FFF1FAC
:100BA000E05EF84F21E030E031832083789420E04C
:100BB00030E00E941E03C12CD12CE12CF12C00E06E
:100BC00010E020E030E040E050E0BC018B2D0E94BE
:100BD000AB04811117C0F8948091C4068F5F809395
:100BE000C406CC0FDD1FC05ED84F888199810E945A
:100BF000680378948091B006882391F00E943B04AA
:100C000080E00FC0F894CC0FDD1FC05ED84F198272
:100C10001882789406C0789488E203C08AE201C002
:100C200080E0DF91CF911F910F91FF90EF90DF90C7
:100C3000CF90BF900895CF93DF931092D506109276
:100C4000D6061092D7061092D8061092D2061092AD
:100C5000AF061092C4061092B0061092B106109220
:100C6000B2061092B3061092B4061092B906109212
:100C7000BA061092BB061092BC061092C706E8ECAA
:100C8000F6E080ED96E01192E817F907E1F710928F
:100C9000B6061092B5061092C6061092C5061092BE
:100CA000D4061092D3061092B8061092B706E0E26E
:100CB000F7E080EA97E011921192E817F907D9F767
:100CC0008AE492E02CEE32E0FC01709791838083FD
:100CD000429682179307C1F71092DD021092DC0250
:100CE00088E392E09093C2068093C106E9EDF6E0B6
:100CF000C7EED6E0D183C083A5EFB6E0B983A88361
:100D0000C3E0D7E0CD93DC93A1E1B7E0B983A8833A
:100D10001D921C92F093D106E093D0062FE34BE690
:100D200053E060E070E084E993E00E94B1052EE3B7
:100D30004BE253E060E070E08AEE96E00E94B1057D
:100D4000DF91CF9108950097E1F0F894E091D306F8
:100D5000F091D406A785B0E0A853B94F208920951B
:100D60003C9123232C93211107C021892095309198
:100D7000C70623232093C7069387828778940E940F
:100D80003B04089582E090E00E94A306F89410923C
:100D9000B1061092B2061092B3061092B40678947F
:100DA00088EC90E00E94A306F8948091B10690919F
:100DB000B206A091B306B091B4068093BD0690939D
:100DC000BE06A093BF06B093C00681E080931F07C4
:100DD0007894089580911F07811108C080E991E0FF
:100DE0000E94A30680911F078823C1F3C4E6F894EC
:100DF0002091B1063091B2064091B3065091B406ED
:100E00002093A0073093A1074093A2075093A30714
:100E10001092B1061092B2061092B3061092B40668
:100E20007894C090BD06D090BE06E090BF06F090CA
:100E3000C006C114D104E104F104B9F0A4E6B0E0A5
:100E40000E946F07A70196010E943E078C2F821B0C
:100E500085361CF0C093C3060AC088231CF4109288
:100E6000C30605C08093C30602C01092C3060E9449
:100E7000690388EC90E00E94A306B9CFA1E21A2E84
:100E8000AA1BBB1BFD010DC0AA1FBB1FEE1FFF1F2E
:100E9000A217B307E407F50720F0A21BB30BE40B7E
:100EA000F50B661F771F881F991F1A9469F76095C5
:100EB0007095809590959B01AC01BD01CF0108957F
:100EC000A29FB001B39FC001A39F700D811D11248B
:100ED000911DB29F700D811D1124911D08950E94D6
:100EE0006007A59F900DB49F900DA49F800D911D4C
:100EF00011240895CF93DF93EC012B8120FF33C0A1
:100F000026FF0AC02F7B2B838E819F8101969F83B2
:100F10008E838A8190E029C022FF0FC0E881F98189
:100F20008081992787FD9095009719F420622B8383
:100F30001AC03196F983E8830EC0EA85FB850995CE
:100F400097FF09C02B81019611F480E101C080E276
:100F5000822B8B8308C02E813F812F5F3F4F3F83C1
:100F60002E83992702C08FEF9FEFDF91CF910895D5
:100F7000A0E0B0E0EEEBF7E00C94540AFE013596E9
:100F800061917191AF018091A6079091A7070E948E
:100F9000CC07E2E00C94700AACE0B0E0E2EDF7E0E0
:100FA0000C94440A7C016B018A01FC0117821682B1
:100FB000838181FFBDC1CE0101964C01F701938170
:100FC000F60193FD859193FF81916F01882309F4C8
:100FD000ABC1853239F493FD859193FF81916F0107
:100FE000853229F4B70190E00E94B409E7CF512C73
:100FF000312C20E02032A0F48B3269F030F48032C2
:1010000059F0833269F420612CC08D3239F080337D
:1010100039F4216026C02260246023C0286021C0EA
:1010200027FD27C030ED380F3A3078F426FF06C090
:10103000FAE05F9E300D1124532E13C08AE0389ED3
:10104000300D1124332E20620CC08E3221F426FD87
:101050006BC1206406C08C3611F4206802C088364B
:1010600041F4F60193FD859193FF81916F01811108
:10107000C1CF982F9F7D9554933028F40C5F1F4F5C
:10108000FFE3F9830DC0833631F0833771F0833588
:1010900009F05BC022C0F801808189830E5F1F4F79
:1010A00044244394512C540115C03801F2E06F0ED2
:1010B000711CF801A080B18026FF03C0652D70E08F
:1010C00002C06FEF7FEFC5012C870E94A9092C0198
:1010D00083012C852F77222E17C03801F2E06F0E86
:1010E000711CF801A080B18026FF03C0652D70E05F
:1010F00002C06FEF7FEFC5012C870E949E092C0173
:101100002C852068222E830123FC1BC0832D90E0B8
:1011100048165906B0F4B70180E290E00E94B40985
:101120003A94F4CFF50127FC859127FE81915F0168
:10113000B70190E00E94B40931103A94F1E04F1ADF
:1011400051084114510471F7E5C0843611F0893615
:1011500039F5F80127FF07C0608171818281938191
:101160000C5F1F4F08C060817181882777FD8095D3
:10117000982F0E5F1F4F2F76B22E97FF09C09095C4
:101180008095709561957F4F8F4F9F4F2068B22E4D
:101190002AE030E0A4010E94E609A82EA81844C065
:1011A000853729F42F7EB22E2AE030E025C0F22FB9
:1011B000F97FBF2E8F36C1F018F4883579F0B4C0AE
:1011C000803719F0883721F0AFC02F2F2061B22E61
:1011D000B4FE0DC08B2D8460B82E09C024FF0AC058
:1011E0009F2F9660B92E06C028E030E005C020E1B0
:1011F00030E002C020E132E0F801B7FE07C06081B4
:101200007181828193810C5F1F4F06C06081718163
:1012100080E090E00E5F1F4FA4010E94E609A82E17
:10122000A818FB2DFF77BF2EB6FE0BC02B2D2E7FEF
:10123000A51450F4B4FE0AC0B2FC08C02B2D2E7EBB
:1012400005C07A2C2B2D03C07A2C01C0752C24FFED
:101250000DC0FE01EA0DF11D8081803311F4297E5D
:1012600009C022FF06C07394739404C0822F86784D
:1012700009F0739423FD13C020FF06C05A2C731489
:1012800018F4530C5718732C731468F4B70180E2E8
:1012900090E02C870E94B40973942C85F5CF7314C9
:1012A00010F4371801C0312C24FF12C0B70180E3BD
:1012B00090E02C870E94B4092C8522FF17C021FFE3
:1012C00003C088E590E002C088E790E0B7010CC059
:1012D000822F867859F021FD02C080E201C08BE2A6
:1012E00027FD8DE2B70190E00E94B409A51438F4FF
:1012F000B70180E390E00E94B4095A94F7CFAA9412
:10130000F401EA0DF11D8081B70190E00E94B4095B
:10131000A110F5CF332009F451CEB70180E290E05F
:101320000E94B4093A94F6CFF7018681978102C0F2
:101330008FEF9FEF2C96E2E10C94600AFC01059080
:10134000615070400110D8F7809590958E0F9F1FC7
:101350000895FC016150704001900110D8F780950C
:1013600090958E0F9F1F08950F931F93CF93DF9338
:10137000182F092FEB018B8181FD03C08FEF9FEFA9
:1013800020C082FF10C04E815F812C813D814217B9
:1013900053077CF4E881F9819F012F5F3F4F398328
:1013A0002883108306C0E885F985812F0995892B4C
:1013B00029F72E813F812F5F3F4F3F832E83812F5F
:1013C000902FDF91CF911F910F910895FA01AA27D5
:1013D000283051F1203181F1E8946F936E7F6E5F78
:1013E0007F4F8F4F9F4FAF4FB1E03ED0B4E03CD026
:1013F000670F781F891F9A1FA11D680F791F8A1F09
:10140000911DA11D6A0F711D811D911DA11D20D06F
:1014100009F468943F912AE0269F11243019305D29
:101420003193DEF6CF010895462F4770405D41931A
:10143000B3E00FD0C9F7F6CF462F4F70405D4A3367
:1014400018F0495D31FD4052419302D0A9F7EACF2F
:10145000B4E0A6959795879577956795BA95C9F75E
:1014600000976105710508959B01AC010A2E069451
:101470005795479537952795BA95C9F7620F731F0A
:10148000841F951FA01D08952F923F924F925F9247
:101490006F927F928F929F92AF92BF92CF92DF9284
:1014A000EF92FF920F931F93CF93DF93CDB7DEB7E9
:1014B000CA1BDB0B0FB6F894DEBF0FBECDBF09947D
:1014C0002A88398848885F846E847D848C849B84D4
:1014D000AA84B984C884DF80EE80FD800C811B81E2
:1014E000AA81B981CE0FD11D0FB6F894DEBF0FBE11
:0A14F000CDBFED010895F894FFCF81
:1014FA00000000010000000000008C030000000052
:10150A000002000000007C03000000000D0A4D6587
:10151A006469746174696F6E3A2025750D0A00005A
:10152A0000010002000100030001000200010004A2
:10153A000001000200010003000100020001000591
:10154A000001000200010003000100020001000482
:10155A000001000200010003000100020001000670
:10156A000001000200010003000100020001000462
:10157A000001000200010003000100020001000551
:10158A000001000200010003000100020001000442
:10159A00000100020001000300010002000100072F
:1015AA000001000200010003000100020001000422
:1015BA000001000200010003000100020001000511
:1015CA000001000200010003000100020001000402
:1015DA0000010002000100030001000200010006F0
:1015EA0000010002000100030001000200010004E2
:1015FA0000010002000100030001000200010005D1
:10160A0000010002000100030001000200010004C1
:10161A0000010002000100030001000200010001B4
:08162A000204081020408000BA
:00000001FF
